:100000001CEF00F006C0BEFF1200EA6A060EE96EA1
:10001000EF50D8B41AEF00F00F0E016E006A002EF8
:10002000FED7012EFBD78F0E006E002EFED70000EC
:10003000EF2EF2D759EF00F0F86AD09EC150C00BF6
:100040000F09C16E070EB46E0F0E936EFB0E946E09
:10005000000E0609CA6EFF0ECB6E94948B940C0EA4
:10006000BD6EB76AB66A056A938081A006D00A0E93
:10007000056E05C006F0C6DF19D0938281A206D0B6
:10008000400E056E05C006F0BDDF10D0938481A43C
:1000900006D0C80E056E05C006F0B4DF07D0938603
:1000A00081A604D0056A05C006F0ACDF640E066EBA
:0600B000ACD7DAD7030013
:020000040030CA
:0E00000024CE3E1E0087A1000FC00FE00F406F
:00000001FF
;PIC18F4550
;CRC=7B91  CREATED="31-May-24 16:41"
